:100000000C9434000C9451000C9451000C94510049
:100010000C9451000C9451000C9451000C9451001C
:100020000C9451000C9451000C9451000C9451000C
:100030000C9451000C9451000C9451000C945100FC
:100040000C9451000C9451000C9451000C945100EC
:100050000C9451000C9451000C9451000C945100DC
:100060000C9451000C94510011241FBECFEFD8E026
:10007000DEBFCDBF13E0A0E0B1E0EAEDF0E102C0E9
:1000800005900D92A031B107D9F723E0A0E1B3E0CC
:1000900001C01D92A331B207E1F70E94C5050C947F
:1000A0006B080C94000014BC85E085BD16BC089557
:1000B000CF92DF92EF92FF926B017C0181E00E9470
:1000C000C8018DEF92E00E940F02C701B6010E94A5
:1000D0001807AB01BC0123E08AE00E941B0288E004
:1000E00093E00E940F022CE53FE842E250E4C70192
:1000F000B6010E94A6060E941807AB01BC0122E0CF
:100100008AE00E941B028DE093E0FF90EF90DF9069
:10011000CF900C940F02CF93C82F80E00E94060569
:100120008C2FCF910C941C050C948D050C944C05D0
:10013000CF93C82F8CE30E948B0080E00E944C0577
:100140008C2F0E944C05CF910C948D05CF93DF939B
:1001500081E20E94980080E00E9498008FE70E9450
:10016000980082E20E94980080E00E94980087E058
:100170000E9498008CE30E948B0080E40E944C0552
:10018000C0E0D4E080E00E944C052197D9F781E2DD
:100190000E94980080E00E9498008FE70E949800DB
:1001A00082E20E94980080E00E94980087E00E940E
:1001B00098008CE30E948B0080E4DF91CF910C9437
:1001C0004C050E94FA048EEA0E94980085ED0E9478
:1001D000980080E80E94980088EA0E9498008FE3C7
:1001E0000E94980083ED0E94980080E00E94980091
:1001F00080E40E9498008DE80E94980084E10E94AB
:10020000980080E20E94980080E00E94980081EAB5
:100210000E94980088EC0E9498008AED0E94980045
:1002200082E10E94980081E80E9498008FEC0E9471
:10023000980089ED0E94980081EF0E9498008BED54
:100240000E94980080E40E94980084EA0E9498002E
:1002500086EA0E9498008FEA0E9498000C94A600FB
:10026000CF93DF93C82FD62F80931103609312038F
:1002700081E20E9498008D2F0E9498008FE70E94D3
:10028000980082E20E9498008C2F0E94980087E0DC
:100290000E9498008CE30E948B0080E4DF91CF9154
:1002A0000C944C05883018F467FF0C9430010895C5
:1002B0005F926F927F928F929F92AF92BF92CF92F6
:1002C000DF92EF92FF920F931F93CF93DF93882ECD
:1002D0007B0127E0281708F4812C912C85E0682EFB
:1002E000F701E90DF11D8081811110C0DF91CF91DF
:1002F0001F910F91FF90EF90DF90CF90BF90AF9044
:100300009F908F907F906F905F900895D6E06F01DF
:100310006D2F882D0E945201CD2F712CF601E70D13
:10032000F11D0081002311F0C7FF0DC08FEF99EF81
:1003300020E0815090402040E1F700C00000D15003
:1003400039F79394CDCF0052069D80011124B12C32
:10035000A12C552453945C0EC7FD10C0F501E00F8D
:10036000F11FE050FF4F80810E944C058FEFA81ACB
:10037000B80AC52D95E0A916B10459F780E00E948E
:100380004C0525E32A95F1F70000CF5F7394C6CFA3
:10039000883028F48093110360E00C945201089592
:1003A000809111038F5F87708093110360E00C943C
:1003B00052010F931F93CF93DF93C82F80911203A5
:1003C0008B3720F5CA3011F1C05285E0C89FE0019B
:1003D000112410E000E0F801EC0FFD1FE050FF4F8A
:1003E00080810E944C05809112038F5F80931203DD
:1003F0000F5F1F4F0530110571F780E00E944C051B
:10040000809112038F5F8093120304C00E94D00179
:10041000CA30D1F6DF91CF911F910F910895CF93FC
:10042000DF93EC018991811103C0DF91CF91089591
:100430000E94D901F7CF2F923F924F925F926F9215
:100440007F928F929F92AF92BF92CF92DF92EF9264
:10045000FF920F931F93CF93DF93CDB7DEB72A9709
:100460000FB6F894DEBF0FBECDBF182F4A015B0157
:10047000722E8230D1F5022F10E0EE24E394F12C9D
:1004800001501109C8F42A960FB6F894DEBF0FBECA
:10049000CDBFDF91CF911F910F91FF90EF90DF9033
:1004A000CF90BF90AF909F908F907F906F905F9014
:1004B0004F903F902F900895A701002E02C0440F47
:1004C000551F0A94E2F7052E000C660B770B4821A6
:1004D00059216A217B2181E0452B462B472B09F4CA
:1004E00080E0805D0E94D901CBCF81149104A104EA
:1004F000B10409F445C0FE0131967F016F0100E0AF
:10050000282E312C512C412C7016D9F081149104D5
:10051000A104B10499F0682CC501B401A2019101B4
:100520000E94120649015A01129F60181124F60117
:1005300060820F5FFFEFCF1ADF0AE6CFFAE0F71510
:1005400080F40E0D1F2D111D0E151F0509F49BCFF4
:10055000F80182918F018A3038F0895C0E94D901BC
:10056000F3CFF6011082E5CF805DF8CF80E30E94E3
:10057000D9011F5F171509F486CF1A30B9F783CF59
:1005800010E0F8CF8F929F92AF92BF92CF92DF92FE
:10059000EF92FF926B017C010E9418074B015C01F6
:1005A0002FEFBC01A4018AE00E941B028EE20E9490
:1005B000D901C501B4010E9447079B01AC01C701E5
:1005C000B6010E94340620E034E244E759E40E9478
:1005D000FE070E941807AB01BC012FEF8AE0FF90D5
:1005E000EF90DF90CF90BF90AF909F908F900C9442
:1005F0001B024F925F926F927F92AF92BF92CF9207
:10060000DF92EF92FF920F931F93CF93DF93CDB7BB
:10061000DEB7FE017196A190B1908F014AE0E42E01
:10062000F501808181110FC0DF91CF911F910F9152
:10063000FF90EF90DF90CF90BF90AF907F906F9042
:100640005F904F900895853209F0DDC065018FEF0E
:10065000C81AD80AF501218180ED820F8A3008F08E
:10066000D6C0F12C09C0FE9C200D112430EDF32ED4
:10067000F20EF60121816A01A6014F5F5F4F80ED06
:10068000820F8A3080F3283509F4A4C02CF5243475
:1006900009F475C06CF4223409F4A6C023340CF0BC
:1006A00047C0253209F04DC085E20E94D90149C0FA
:1006B0002335A1F1253509F4C6C0263409F041C01F
:1006C000580184E0A80EB11CF8016081718182811B
:1006D00093810E94C20234C0263691F3BCF42336C3
:1006E00039F12436A9F1223661F55801F2E0AF0E56
:1006F000B11CF80140815181FFEFFF1202C090E16F
:10070000F92E70E060E02F2D82E053C0253709F408
:1007100055C0283709F4B9C0233799F45801F2E0DD
:10072000AF0EB11CF801808191810E940F0208C0B8
:100730005801F2E0AF0EB11CF80180810E94D9018E
:1007400085015601FFEFAF1ABF0A6ACFFF24FA9462
:100750005801F2E0AF0EB11CF8010081118117FFC2
:1007600006C01195019511098DE20E94D901A801D9
:10077000110F660B770B2F2D1BC0FF24FA94580125
:10078000F4E0AF0EB11CF8014080518062807380AC
:1007900077FE0BC07094609450944094411C511C9F
:1007A000611C711C8DE20E94D9012F2DB301A201A1
:1007B0008AE00E941B02C4CFFF24FA945801F2E0A1
:1007C000AF0EB11CF8014081518170E060E0D3CFE1
:1007D000FF24FA945801F4E0AF0EB11CF8014081F7
:1007E0005181628173815AC0580184E0A80EB11C06
:1007F000F8014081518162817381FFEFFF1283CF45
:1008000080E1F82E80CF0E94D90165019ACF28356A
:10081000F9F21CF5243409F4B0CF6CF4223409F059
:100820003DCF5801F4E0AF0EB11CF8014081518179
:1008300062817381E5CF233509F470CFFF24FA94E8
:10084000253509F03ACF5801F4E0AF0EB11CF8019C
:1008500040815181628173818ECF263609F430CF79
:1008600064F4233609F464CF243609F46FCF2236BA
:1008700009F067CFFF24FA9438CF253709F49CCFCD
:10088000FF24FA94283709F047CF5801F2E0AF0E61
:10089000B11CF8014081518170E060E02F2D80E1B2
:1008A00088CFEF92FF920F931F93CF93DF93853002
:1008B000E8F56536D8F5C62FD82FD295DD0FD07E56
:1008C00068E06D0F80E00E9452014C2F50E070E014
:1008D00060E023E08AE00E941B028C2F82958F70DB
:1008E00007E0081BC695C77088E090E08C1B910953
:1008F0001FEF01C0110F8A95EAF7C1E0D45F6D2F99
:100900008C2F0E945201E12CC01728F0EE24EA94AB
:100910000C1301C0E12E8CE0F82E8E2D0E944C05A8
:10092000FA94F110FACFCF5FC83049F7DF91CF9139
:100930001F910F91FF90EF9008951F93CF93DF9336
:10094000853048F5653638F5162FC82FCC0FCF5FA8
:1009500060E08C2F0E945201D0E0D11312C01D2FF5
:100960001436A1F469E68C2F0E9452014D2F50E0FD
:1009700070E060E023E08AE0DF91CF911F910C945A
:100980001B028FEF0E944C05DF5FE7CF80E00E94E3
:100990004C051F5FE5CFDF91CF911F9108950F9315
:1009A0001F93CF93DF938C0160E080E00E943001C1
:1009B0008CE30E948B0080E40E944C05E8011C5FE0
:1009C00089910E944C05C017D107D1F7DF91CF91D3
:1009D0001F910F91089587EA0C94980086EA0C9471
:1009E0009800CF93C82F81E80E9498008C2FCF9158
:1009F0000C949800E9EBF0E0808182608083808134
:100A00008E7F808383E18093B800089580931003E4
:100A10008091BC00846A8093BC008091BC0087FFF9
:100A2000FCCF8091B900887F883021F0803111F0AF
:100A30008EEF08958FEF0895880F90911003892B02
:100A40008093BB008091BC008F7D8093BC0080911F
:100A5000BC0080688093BC008091BC0087FFFCCF05
:100A600080911003811107C08091B900887F88317F
:100A700079F08EEF0895813069F4E091B900E87F54
:100A8000E853E131B0F7F0E0E451FD4F8081089583
:100A90008FEF089580E008958093BB008091BC00A3
:100AA00080688093BC008091BC0087FFFCCFE09100
:100AB000B900E87FE852E13128F4F0E0E552FD4F5B
:100AC000808108958EEF089583E3815011F48CEFB7
:100AD00008959091BC0097FFF8CF8DEF0895811194
:100AE00015C08091BC0080648093BC008091BC00E4
:100AF00080688093BC000E9464058091B900887F63
:100B0000803541F0883531F08EEF08958091BC003A
:100B10008F7BEACF8091BB0008958091BC008069F3
:100B20008093BC008091BC0084FFFCCF089588E0D6
:100B30008093C10086E08093C20087E68093C40062
:100B400008959091C00095FFFCCF8093C600089552
:100B50001F93CF93DF93EC0110E0812F90E0FE0113
:100B600001900020E9F73197EC1BFD0B8E179F07D2
:100B700020F0DF91CF911F9108958C0F9D1FFC01F4
:100B800080810E94A1051F5FE8CF82E084B9299887
:100B90000E94E1000E94530016BC299A25E32A9581
:100BA000F1F700002998189B34C0189935C0C01778
:100BB000D10728F5B8016C1B7D0B90E080E00E9406
:100BC000470724E43BE84CE85FE30E94FE076B0123
:100BD0007C0120E030E040EA50E40E94F90718165A
:100BE000F4F420E030E048E453E4C701B6010E9489
:100BF000A10687FF14C0C701B6010E9458008FEFFD
:100C000099E628E1815090402040E1F700C00000C3
:100C1000C3CFC6B5D0E0C7CF06B510E0C6CF0E949F
:100C2000A600EDCFA1E21A2EAA1BBB1BFD010DC031
:100C3000AA1FBB1FEE1FFF1FA217B307E407F5078C
:100C400020F0A21BB30BE40BF50B661F771F881F68
:100C5000991F1A9469F760957095809590959B01FE
:100C6000AC01BD01CF0108955058BB27AA270E94AF
:100C70004C060C94BF070E94B10738F00E94B807D9
:100C800020F039F49F3F19F426F40C94AE070EF4CB
:100C9000E095E7FB0C94A807E92F0E94D00758F3D2
:100CA000BA17620773078407950720F079F4A6F551
:100CB0000C94F2070EF4E0950B2EBA2FA02D0B0129
:100CC000B90190010C01CA01A0011124FF27591B91
:100CD00099F0593F50F4503E68F11A16F040A22F97
:100CE000232F342F4427585FF3CF46953795279508
:100CF000A795F0405395C9F77EF41F16BA0B620B07
:100D0000730B840BBAF09150A1F0FF0FBB1F661F4D
:100D1000771F881FC2F70EC0BA0F621F731F841F90
:100D200048F4879577956795B795F7959E3F08F0B6
:100D3000B0CF9395880F08F09927EE0F9795879578
:100D400008950E94840708F481E008950E94BA067D
:100D50000C94BF070E94B80758F00E94B10740F0FA
:100D600029F45F3F29F00C94A80751110C94F30764
:100D70000C94AE070E94D00768F39923B1F3552372
:100D800091F3951B550BBB27AA276217730784079E
:100D900038F09F5F5F4F220F331F441FAA1FA9F334
:100DA00035D00E2E3AF0E0E832D091505040E69522
:100DB000001CCAF72BD0FE2F29D0660F771F881F83
:100DC000BB1F261737074807AB07B0E809F0BB0B76
:100DD000802DBF01FF2793585F4F3AF09E3F51058A
:100DE00078F00C94A8070C94F3075F3FE4F3983E67
:100DF000D4F3869577956795B795F7959F5FC9F773
:100E0000880F911D9695879597F90895E1E0660FF3
:100E1000771F881FBB1F621773078407BA0720F06C
:100E2000621B730B840BBA0BEE1F88F7E0950895D5
:100E30000E94D80788F09F5798F0B92F9927B7518B
:100E4000B0F0E1F0660F771F881F991F1AF0BA956E
:100E5000C9F714C0B13091F00E94F207B1E00895D3
:100E60000C94F207672F782F8827B85F39F0B93FC5
:100E7000CCF3869577956795B395D9F73EF4909521
:100E80008095709561957F4F8F4F9F4F0895E8949F
:100E900009C097FB3EF490958095709561957F4FC2
:100EA0008F4F9F4F9923A9F0F92F96E9BB27939570
:100EB000F695879577956795B795F111F8CFFAF480
:100EC000BB0F11F460FF1BC06F5F7F4F8F4F9F4FB1
:100ED00016C0882311F096E911C0772321F09EE80F
:100EE000872F762F05C0662371F096E8862F70E075
:100EF00060E02AF09A95660F771F881FDAF7880F4F
:100F00009695879597F90895990F0008550FAA0BA4
:100F1000E0E8FEEF16161706E807F907C0F012160C
:100F20001306E407F50798F0621B730B840B950B0F
:100F300039F40A2661F0232B242B252B21F4089564
:100F40000A2609F4A140A6958FEF811D811D089501
:100F500097F99F6780E870E060E008959FEF80EC6C
:100F6000089500240A94161617061806090608950F
:100F700000240A9412161306140605060895092E75
:100F80000394000C11F4882352F0BB0F40F4BF2BE4
:100F900011F460FF04C06F5F7F4F8F4F9F4F089524
:100FA00057FD9058440F551F59F05F3F71F047951A
:100FB000880F97FB991F61F09F3F79F087950895FF
:100FC000121613061406551FF2CF4695F1DF08C01E
:100FD000161617061806991FF1CF8695710561053B
:100FE00008940895E894BB2766277727CB0197F9E3
:100FF00008950E94840708F48FEF08950E94110855
:101000000C94BF070E94B10738F00E94B80720F087
:10101000952311F00C94A8070C94AE0711240C949E
:10102000F3070E94D00770F3959FC1F3950F50E02E
:10103000551F629FF001729FBB27F00DB11D639F8A
:10104000AA27F00DB11DAA1F649F6627B00DA11D30
:10105000661F829F2227B00DA11D621F739FB00DD6
:10106000A11D621F839FA00D611D221F749F332746
:10107000A00D611D231F849F600D211D822F762FDF
:101080006A2F11249F5750409AF0F1F088234AF0BC
:10109000EE0FFF1FBB1F661F771F881F9150504028
:1010A000A9F79E3F510580F00C94A8070C94F30714
:1010B0005F3FE4F3983ED4F3869577956795B795AF
:1010C000F795E7959F5FC1F7FE2B880F911D9695C9
:0A10D000879597F90895F894FFCF73
:1010DA00000000000000002F0000000700070014B5
:1010EA007F147F14242A7F2A122313086462364944
:1010FA005522500005030000001C22410000412235
:10110A001C0014083E081408083E08080000A060E5
:10111A00000808080808006060000020100804029F
:10112A003E5149453E00427F4000426151494621B5
:10113A0041454B311814127F1027454545393C4A21
:10114A004949300171090503364949493606494971
:10115A00291E0036360000005636000008142241C7
:10116A00001414141414004122140802015109062F
:10117A00324959513E7C1211127C7F494949363E07
:10118A00414141227F4141221C7F494949417F090E
:10119A000909013E4149497A7F0808087F00417FD1
:1011AA0041002040413F017F081422417F404040D6
:1011BA00407F020C027F7F0408107F3E4141413E7E
:1011CA007F090909063E4151215E7F0919294646D0
:1011DA004949493101017F01013F4040403F1F20F9
:1011EA0040201F3F4038403F6314081463070870CB
:1011FA0008076151494543007F41410055AA55AA54
:10120A00550041417F000402010204404040404031
:10121A00000305000020545454787F484444383869
:10122A0044444420384444487F3854545418087E6F
:10123A0009010218A4A4A47C7F0804047800447D50
:10124A0040004080847D007F1028440000417F4098
:10125A00007C041804787C08040478384444443830
:10126A00FC2424241818242418FC7C0804040848A4
:10127A0054545420043F4440203C4040207C1C20CD
:10128A0040201C3C4030403C44281028441CA0A06C
:10129A00A07C4464544C4400107C82000000FF008F
:1012AA000000827C10000006090906FFFEFEFEFE11
:1012BA00FEFEFEFEFEFEFEFEFEFEFEFEFEFEFEFE44
:1012CA00FEFEFEFEFFFEFEFEFEFEFEFEFE4469730D
:1012DA0074616E63653A2000636D2C2000696E00AC
:00000001FF
