:100000000C9434000C9449000C9449000C94490061
:100010000C9449000C9449000C9449000C9449003C
:100020000C9449000C9449000C9449000C9449002C
:100030000C9449000C9449000C9449000C9449001C
:100040000C9449000C9449000C9449000C9449000C
:100050000C9449000C9449000C9449000C944900FC
:100060000C9449000C94490011241FBECFEFD8E036
:10007000DEBFCDBF11E0A0E0B1E0E2EFF5E002C0ED
:1000800005900D92AC30B107D9F70E944B000C944B
:10009000F7020C940000CF93DF93CDB7DEB72C9717
:1000A0000FB6F894DEBF0FBECDBF8FEF84B98FE0DF
:1000B00087B980EF8AB984E08BB98CE0E0E0F1E0A9
:1000C000DE01119601900D928A95E1F785E4809307
:1000D0007C0087E880937A008AE0982E94E6E92EE7
:1000E000F12C2DEFA22E0AE010E03BEFB32E47EFEC
:1000F000C42E5FEED52E80917A00806480937A00C2
:1001000080917A0084FFFCCF809178006091790023
:10011000762F682F90E080E00E94FC0125E732E016
:100120004AEF5EE30E948A0220E030E048E452E4B5
:100130000E9460010E94CD014A9952C0969E900192
:10014000979E300D1124C901B7010E944C01E1E0D6
:10015000F0E0EC0FFD1FE60FF11D808188B9808172
:100160008BB9A5B88FE99FE00197F1F700C00000B7
:10017000C901B8010E944C01FC01CB01B8010E94E9
:100180004C01A1E0B0E0AC0FBD1FA80FB91F8C91CE
:1001900088B98C9180688BB9B5B88FE99FE00197D9
:1001A000F1F700C0000081E090E08C0F9D1FE80F88
:1001B000F91F808188B980818BB9C5B88FE99FE02C
:1001C0000197F1F700C000008C8588B98C858BB948
:1001D000D5B88FE99FE00197F1F700C000008BCF01
:1001E00090E080E00E94FC0126E636E646EE5FE302
:1001F0000E948A0220E030E040E052E40E94610167
:100200000E94CD01969E9001979E300D1124C90148
:10021000B7010E944C01E1E0F0E0EC0FFD1FE60F9A
:10022000F11D808188B980818BB9A5B88FE99FE0E5
:100230000197F1F700C00000C901B8010E944C010C
:10024000FC01CB01B8010E944C01A1E0B0E0AC0F71
:10025000BD1FA80FB91F8C9188B98C9180688BB98C
:10026000B5B88FE99FE00197F1F700C0000081E089
:1002700090E08C0F9D1FE80FF91F808188B9808165
:100280008BB9C5B88FE99FE00197F1F700C0000076
:100290008B8588B98B859BCFAA1BBB1B51E107C0FF
:1002A000AA1FBB1FA617B70710F0A61BB70B881F06
:1002B000991F5A95A9F780959095BC01CD01089595
:1002C0005058BB27AA270E9478010C9450020E9424
:1002D000420238F00E94490220F039F49F3F19F49D
:1002E00026F40C943F020EF4E095E7FB0C943902DF
:1002F000E92F0E94610258F3BA1762077307840757
:10030000950720F079F4A6F50C9483020EF4E0959D
:100310000B2EBA2FA02D0B01B90190010C01CA01BF
:10032000A0011124FF27591B99F0593F50F4503E6A
:1003300068F11A16F040A22F232F342F4427585F5C
:10034000F3CF469537952795A795F0405395C9F774
:100350007EF41F16BA0B620B730B840BBAF091502C
:10036000A1F0FF0FBB1F661F771F881FC2F70EC0CB
:10037000BA0F621F731F841F48F48795779567959E
:10038000B795F7959E3F08F0B0CF9395880F08F08A
:100390009927EE0F9795879508950E94690288F036
:1003A0009F5798F0B92F9927B751B0F0E1F0660F39
:1003B000771F881F991F1AF0BA95C9F714C0B1307A
:1003C00091F00E948302B1E008950C948302672F9C
:1003D000782F8827B85F39F0B93FCCF386957795A9
:1003E0006795B395D9F73EF4909580957095619592
:1003F0007F4F8F4F9F4F0895E89409C097FB3EF4BD
:1004000090958095709561957F4F8F4F9F4F992361
:10041000A9F0F92F96E9BB279395F69587957795DF
:100420006795B795F111F8CFFAF4BB0F11F460FF9F
:100430001BC06F5F7F4F8F4F9F4F16C0882311F0F7
:1004400096E911C0772321F09EE8872F762F05C00B
:10045000662371F096E8862F70E060E02AF09A95A6
:10046000660F771F881FDAF7880F9695879597F99B
:10047000089597F99F6780E870E060E008959FEF26
:1004800080EC089500240A9416161706180609062B
:10049000089500240A9412161306140605060895FA
:1004A000092E0394000C11F4882352F0BB0F40F482
:1004B000BF2B11F460FF04C06F5F7F4F8F4F9F4FC2
:1004C000089557FD9058440F551F59F05F3F71F044
:1004D0004795880F97FB991F61F09F3F79F08795AB
:1004E0000895121613061406551FF2CF4695F1DF34
:1004F00008C0161617061806991FF1CF86957105C4
:10050000610508940895E894BB2766277727CB01F7
:1005100097F908950E949D020C9450020E94420295
:1005200038F00E94490220F0952311F00C94390212
:100530000C943F0211240C9484020E94610270F317
:10054000959FC1F3950F50E0551F629FF001729F78
:10055000BB27F00DB11D639FAA27F00DB11DAA1F87
:10056000649F6627B00DA11D661F829F2227B00DD4
:10057000A11D621F739FB00DA11D621F839FA00D5F
:10058000611D221F749F3327A00D611D231F849FAF
:10059000600D211D822F762F6A2F11249F57504006
:1005A0009AF0F1F088234AF0EE0FFF1FBB1F661F81
:1005B000771F881F91505040A9F79E3F510580F04A
:1005C0000C9439020C9484025F3FE4F3983ED4F318
:1005D000869577956795B795F795E7959F5FC1F7EE
:1005E000FE2B880F911D9695879597F90895F8949D
:0205F000FFCF3B
:0C05F2003F065B4F666D7D077F6F71391F
:00000001FF
